:0A033A003F065B4F666D7D077F6F85
:10031200020A0000010C00020F0000020D000002A0
:0703220011000002080000B9
:1002B6007D0A120222743A2DF58274033CF583E41A
:0702C60093F5807F017E002B
:1002CD00E4FDFCC3ED9FEC9E5015E4FBFA0BBB0067
:0F02DD00010AEB647B4A70F50DBD00010C80E453
:0102EC0022EF
:0402ED008F828E83EB
:1002F100E4F513F514E582458370117F02FE1202C5
:10030100CDE58245837005F513751401AE13AF1465
:0103110022C9
:10032A00438901758CFC758A18D2A9D2AFD28C2266
:03000B0002027777
:10027700C0E0C0D0758CFC758A18758CFC758A181F
:10028700E50E6401450D70220510E5107002050F9B
:10029700C394BCE50F94024011750F00751000055B
:0F02A7000CE50C943C4003750C00D0D0D0E03235
:10018800D2A0D2A1D2A2D2A3D2A4D2A5E4F580C291
:10019800A0E50C75F00A8490033A1202C6D2A0E4D6
:1001A800F580C2A1E50C75F00A84E5F093F5807F2F
:1001B800011202CDD2A1E4F580C2A275808012029C
:1001C800CDD2A2E4F580C2A3AE0FAF10FC7D6412BD
:1001D8000222743A2FF58274033E1202C3D2A3E4BA
:1001E800F580C2A4AE0FAF10FC7D0A1202227C007B
:1001F8001202B6D2A4E4F580C2A5AE0FAF10FC126D
:0802080002B6D2A5E4F5802244
:10000E0012032AE4F50DF50EAF0C7E007C037DE89D
:10001E00120210E5102FF50BE50F3EF50AA2B2E421
:10002E00FE33FF1202EDEF64014E7025E51245110D
:10003E00701FE50E450D70047F0180027F00750D67
:10004E00008F0ED290D293D2967511007512018048
:10005E000830B205E4F511F512A2B3E4FE33FF1237
:10006E0002EDEF64014E701DE50945087017F50DA0
:10007E00F50EF50FF510F50CF508750901D290D2B5
:10008E0093D296800830B305E4F508F509E50E45E0
:10009E000D7055D3E50B9440E50A6480949F40485B
:1000AE00E50B94E0E50A648094AE503CC290E50BFB
:1000BE00941CE50A648094A5402EE50B9404E50A91
:1000CE00648094A95022C290C293E50B9448E50A2D
:1000DE00648094A64012E50B94D8E50A648094A738
:0E00EE005006C290C293C296120188020016FC
:030000000200FCFF
:0C00FC00787FE4F6D8FD75811402014302
:10021000EF8DF0A4A8F0CF8CF0A428CE8DF0A42E02
:02022000FE22BC
:10022200BC000BBE0029EF8DF084FFADF022E4CCC0
:10023200F875F008EF2FFFEE33FEEC33FCEE9DEC89
:10024200984005FCEE9DFE0FD5F0E9E4CEFD22EDCF
:10025200F8F5F0EE8420D21CFEADF075F008EF2F19
:10026200FFED33FD4007985006D5F0F222C398FD0A
:050272000FD5F0EA22A7
:1001080002000EE493A3F8E493A34003F68001F2FF
:1001180008DFF48029E493A3F85407240CC8C333F8
:10012800C4540F4420C8834004F456800146F6DFC7
:10013800E4800B0102040810204080900312E47E42
:10014800019360BCA3FF543F30E509541FFEE493BC
:10015800A360010ECF54C025E060A840B8E493A383
:10016800FAE493A3F8E493A3C8C582C8CAC583CAAE
:10017800F0A3C8C582C8CAC583CADFE9DEE780BE66
:0103290000D3
:00000001FF
