:07009400746573740D0A008E
:10005700759850C29953890F438920758DFD758B0B
:06006700FDC2ABD28E22A7
:08008C008F993099FDC2992201
:10006D00120003FF600C12008C740129F9E43AFAB6
:03007D0080EE22F0
:100032001200577BFF7A00799412006D900000AF96
:1000420082AE83E4FCFD7B607AEAF9F8D312001CED
:0500520040E1A380EA7B
:030000000200807B
:0C008000787FE4F6D8FD7581070200329D
:10000300BB010689828A83E0225002E722BBFE02FB
:09001300E32289828A83E493222E
:10001C00EB9FF5F0EA9E42F0E99D42F0EC6480C85B
:06002C0064809845F022FB
:00000001FF
