:10016C000A12C0F9A4B0999282F88090101C000178
:10017C0000020004000800100020004000800A0863
:0A018C00000102030405060708093C
:10019700D3EF9400EE940040147D6E7C00ED1D704B
:0D01A700011CED4C70F7EF1F70E61E80E3A9
:0101B4002228
:10000300752C00752D01E4FBFAE52C60030200A2B8
:10001300E52D14B4080040030200A290002C75F0F3
:1000230003A4C58325F0C583730200440200500274
:10003300005C02006802007402008002008C02006F
:100043009874122BF8E6F58075A001805274122B78
:10005300F8E6F58075A002804674122BF8E6F58069
:1000630075A004803A74122BF8E6F58075A0088019
:100073002E74122BF8E6F58075A010802274122BD3
:10008300F8E6F58075A020801674122BF8E6F5804B
:1000930075A040800A74122BF8E6F58075A0807F66
:1000A300E87E03120197E4F5A0052DE52D70020506
:1000B3002C0BBB00010AD3E52D9408E52C64809436
:1000C300804006752C00752D01D3EB9409EA6480FA
:0D00D3009480500302000CE4FAFB02000CC4
:030000000200E01B
:0C00E000787FE4F6D8FD75812D02012721
:1000EC00020003E493A3F8E493A34003F68001F227
:1000FC0008DFF48029E493A3F85407240CC8C33315
:10010C00C4540F4420C8834004F456800146F6DFE3
:10011C00E4800B010204081020408090016CE47E06
:10012C00019360BCA3FF543F30E509541FFEE493D8
:10013C00A360010ECF54C025E060A840B8E493A39F
:10014C00FAE493A3F8E493A3C8C582C8CAC583CACA
:10015C00F0A3C8C582C8CAC583CADFE9DEE780BE82
:010196000068
:00000001FF
