:1001A800737563636573730D0A0077726F6E67000A
:0C01B80048656C6C6F203531210D0A0089
:0501DF00011200C10047
:1000030075985053890F438920758DFD758BFDC2FB
:0E001300ABD28ED2AFD2ACC299C298D290229C
:0801D7008F993099FDC29922B5
:1001C40012014CFF600C1201D7740129F9E43AFAC8
:0301D40080EE2298
:03002300020110C7
:0B011000C0E0C0D075D000C000C007E8
:10011B00309825AF99C298BF0D0E74082512F8764A
:10012B0000D2007512008010E512C39409500974B7
:08013B00082512F8A6070512C1
:09014300D007D000D0D0D0E0328A
:1000B200E508644C701DE509B44518E50AB444131B
:1000C200E50BB45F0EE50CB44F09E50DB44E04C266
:1000D200908027E508644C7029E50964457023E5A2
:1000E2000AB4441EE50BB45F19E50CB44F14E50DD8
:1000F200B4460FE50EB4460AD2907BFF7A0179A886
:0E01020080067BFF7A0179B21201C4C200228E
:10017B001200037BFF7A0179B81201C4900000AF23
:10018B0082AE83E4FCFD7B607AEAF9F8D312016559
:0D019B004003A380EA3000DB1200B280D6E2
:03000000020026D5
:0C002600787FE4F6D8FD75812002006DA3
:10014C00BB010689828A83E0225002E722BBFE02B1
:09015C00E32289828A83E49322E4
:10016500EB9FF5F0EA9E42F0E99D42F0EC6480C811
:0601750064809845F022B1
:1000320002017BE493A3F8E493A34003F68001F268
:1000420008DFF48029E493A3F85407240CC8C333CF
:10005200C4540F4420C8834004F456800146F6DF9E
:10006200E4800B01020408102040809001DFE47E4E
:10007200019360BCA3FF543F30E509541FFEE49393
:10008200A360010ECF54C025E060A840B8E493A35A
:10009200FAE493A3F8E493A3C8C582C8CAC583CA85
:1000A200F0A3C8C582C8CAC583CADFE9DEE780BE3D
:0101E400001A
:00000001FF
