:0A0227003F065B4F666D7D077F6F99
:0E021800C10002080000020A0003020C0000F0
:1001E800E4FDFCC3ED9FEC9E5015E4FBFA0BBB004D
:0F01F800010AEB647B4A70F50DBD00010C80E439
:0102070022D4
:10020800758901758CFC758A66D2A9D2AFD28C2209
:03000B0002000EE2
:10000E00C0E0C0F0C083C082C0D075D000C000C0B8
:10001E0004C005C006C007758CFC758A6675A0FF06
:10002E00758000AE08AF097C007D0A200018120111
:10003E004274272FF58274023EF583E493F58075A2
:10004E00A0FED200801612014274272DF582740292
:10005E003CF583E493F58075A0FDC200E50B6403C7
:10006E00450A602F050DE50D7002050CC394E8E5F9
:10007E000C64809483401C0509E50970020508751F
:10008E000C00750D009464E5089400400675080098
:10009E00750900D007D006D005D004D000D0D0D03E
:0800AE0082D083D0F0D0E032D3
:10019700120208E5B0B4FD187F0A7E001201E8E5F7
:1001A700B0B4FD06750A00750B01E5B064FD60FA91
:1001B700E5B020E51A7F0A7E001201E8E5B020E5E8
:1001C7000B750A00750B03E5B030E5FB7590FEE58E
:1001D7000B6403450A70057590FF80B77590FE8024
:0101E700B265
:030000000200B645
:0C00B600787FE4F6D8FD7581200200FD83
:10014200BC000BBE0029EF8DF084FFADF022E4CCA1
:10015200F875F008EF2FFFEE33FEEC33FCEE9DEC6A
:10016200984005FCEE9DFE0FD5F0E9E4CEFD22EDB0
:10017200F8F5F0EE8420D21CFEADF075F008EF2FFA
:10018200FFED33FD4007985006D5F0F222C398FDEB
:050192000FD5F0EA2288
:1000C200020197E493A3F8E493A34003F68001F2BC
:1000D20008DFF48029E493A3F85407240CC8C3333F
:1000E200C4540F4420C8834004F456800146F6DF0E
:1000F200E4800B0102040810204080900218E47E84
:10010200019360BCA3FF543F30E509541FFEE49302
:10011200A360010ECF54C025E060A840B8E493A3C9
:10012200FAE493A3F8E493A3C8C582C8CAC583CAF4
:10013200F0A3C8C582C8CAC583CADFE9DEE780BEAC
:0102260000D7
:00000001FF
