:0400D600020800001C
:1000C3005389F0438901758CFC758A67D2A9D2AF35
:0300D300D28C22AA
:03000B0002009A56
:10009A00C0E0C0D0758CFC758A670509E509700255
:1000AA000508C394E8E50894034009750800750932
:0900BA00006390FFD0D0D0E032C9
:080003001200C375900180FE9C
:0300000002000EED
:0C000E00787FE4F6D8FD758109020055EA
:10001A00020003E493A3F8E493A34003F68001F2F9
:10002A0008DFF48029E493A3F85407240CC8C333E7
:10003A00C4540F4420C8834004F456800146F6DFB6
:10004A00E4800B01020408102040809000D6E47E70
:10005A00019360BCA3FF543F30E509541FFEE493AB
:10006A00A360010ECF54C025E060A840B8E493A372
:10007A00FAE493A3F8E493A3C8C582C8CAC583CA9D
:10008A00F0A3C8C582C8CAC583CADFE9DEE780BE55
:0100DA000025
:00000001FF
