:0400E300020800000F
:1000D0005389F0438901758CB8E4F58AD2A9D2AF6F
:0300E000D28C229D
:03000B0002009A56
:10009A00C0E0C0D0758CB8758A000509E509700200
:1000AA000508C39419E508940040167508007509F7
:1000BA0000E5A0B4800575A0018006E5A025E0F55D
:0600CA00A0D0D0D0E0320E
:080003001200D075A00180FE7F
:0300000002000EED
:0C000E00787FE4F6D8FD758109020055EA
:10001A00020003E493A3F8E493A34003F68001F2F9
:10002A0008DFF48029E493A3F85407240CC8C333E7
:10003A00C4540F4420C8834004F456800146F6DFB6
:10004A00E4800B01020408102040809000E3E47E63
:10005A00019360BCA3FF543F30E509541FFEE493AB
:10006A00A360010ECF54C025E060A840B8E493A372
:10007A00FAE493A3F8E493A3C8C582C8CAC583CA9D
:10008A00F0A3C8C582C8CAC583CADFE9DEE780BE55
:0100E7000018
:00000001FF
