:0A01BA003F065B4F666D7D077F6F07
:0C01AD0002080000020A0000020C000022
:10019D00758901758CFC758A66D2A9D2AFD28C2275
:03000B0002000EE2
:10000E00C0E0C0F0C083C082C0D075D000C000C0B8
:10001E0004C005C006C007758CFC758A6675A0FF06
:10002E00E50B450AAE08AF09701FFC7D0A120148A8
:10003E0074BA2FF58274013EF583E493F58075A0B2
:10004E00FE750A00750B01801E7C007D0A120148A8
:10005E0074BA2DF58274013CF583E493F58075A096
:10006E00FD750A00750B00050DE50D7002050CC33C
:10007E0094E8E50C64809483400E0509E50970024E
:10008E000508750C00750D00C3E5099464E5089428
:10009E00004006750800750900D007D006D005D0BF
:0E00AE0004D000D0D0D082D083D0F0D0E03289
:0500030012019D80FECA
:030000000200BC3F
:0C00BC00787FE4F6D8FD75810D02010389
:10014800BC000BBE0029EF8DF084FFADF022E4CC9B
:10015800F875F008EF2FFFEE33FEEC33FCEE9DEC64
:10016800984005FCEE9DFE0FD5F0E9E4CEFD22EDAA
:10017800F8F5F0EE8420D21CFEADF075F008EF2FF4
:10018800FFED33FD4007985006D5F0F222C398FDE5
:050198000FD5F0EA2282
:1000C800020003E493A3F8E493A34003F68001F24B
:1000D80008DFF48029E493A3F85407240CC8C33339
:1000E800C4540F4420C8834004F456800146F6DF08
:1000F800E4800B01020408102040809001ADE47EEA
:10010800019360BCA3FF543F30E509541FFEE493FC
:10011800A360010ECF54C025E060A840B8E493A3C3
:10012800FAE493A3F8E493A3C8C582C8CAC583CAEE
:10013800F0A3C8C582C8CAC583CADFE9DEE780BEA6
:0101B9000045
:00000001FF
