:0A00770012008175A0BF7FE87E0330
:10008100EF4E60217D017C007B6E7A00EB1B7001DD
:100091001AEB4A70F7ED1D70011CED4C70EAEF1F71
:0500A10070DE1E80DB93
:0100A6002237
:1000030075A0FE12007D75A0FD12007D75A0FB7F1B
:10001300907E0112008175A0F77FF47E01120081AA
:1000230075A0EF12007D75A0DF7F907E011200772F
:1000330075A07F7F847E0312007775A0DF7F847EA7
:100043000312008175A0EF7F207E0312008175A04B
:10005300F712007D75A0FBE4FFFE12008175A0FD81
:100063007F087E0212008175A0FE7F227E051200AA
:040073008102000303
:030000000200A754
:0C00A700787FE4F6D8FD758107020003A5
:00000001FF
