:1002E9000A08C0F9A4B0999282F88090041200011A
:0202F900000201
:0802A800F8E6F5807F057E00F9
:1002B000D3EF9400EE940040147D6E7C00ED1D7031
:0D02C000011CED4C70F7EF1F70E61E80E38F
:0102CD00220E
:04026100AB07AA0637
:100265007C007D0A1201D68E188F197C007D0AAF9D
:1002750003AE021201D68D828C83D3EB9409EA6416
:10028500809480500875A00274082B801275A00117
:10029500740825191202A875A002AF8274082F12DE
:0202A50002A8AD
:0102A7002234
:1000030074FFFBFAF5B075B0EF1202ACAFB0EF249A
:1000130019602F24FC601F24FE600F14702EE5B0BE
:1000230064EE60FA7A007B018022E5B064ED60FA49
:100033007A007B028016E5B064EB60FA7A007B03FA
:10004300800AE5B064E760FA7A007B04EBF470029F
:10005300EAF4704975B0DF7F05FE1202B0AFB0EF6E
:100063002429602F24FC601F24FE600F14702EE5EA
:10007300B064DE60FA7A007B058022E5B064DD605F
:10008300FA7A007B068016E5B064DB60FA7A007BBF
:1000930007800AE5B064D760FA7A007B08EBF47056
:1000A30002EAF4704975B0BF7F05FE1202B0AFB02B
:1000B300EF2449602F24FC601F24FE600F14702E70
:1000C300E5B064BE60FA7A007B098022E5B064BDC6
:1000D30060FA7A007B0A8016E5B064BB60FA7A00A6
:1000E3007B0B800AE5B064B760FA7A007B0CEBF413
:1000F3007002EAF4704975B07F7F05FE1202B0AF5B
:10010300B0EF2489602F24FC601F24FE600F14705D
:100113002EE5B0647E60FA7A007B0D8022E5B06440
:100123007D60FA7A007B0E8016E5B0647B60FA7A14
:10013300007B0F800AE5B0647760FA7A007B107564
:06014300B0FFAE02AF03A5
:010149002293
:1002CE0075B0FF120003EFF47002EEF460048E16A8
:0B02DE008F17AF17AE1612026180E808
:0300000002014AB0
:0C014A00787FE4F6D8FD75811902019160
:1001D600C2D5EC30E709B2D5E4C39DFDE49CFCEE44
:1001E60030E715B2D5E4C39FFFE49EFE12020CC3AE
:1001F600E49DFDE49CFC800312020C30D507C3E4A9
:060206009FFFE49EFE22B2
:100156000202CEE493A3F8E493A34003F68001F2EF
:1001660008DFF48029E493A3F85407240CC8C333AA
:10017600C4540F4420C8834004F456800146F6DF79
:10018600E4800B01020408102040809002E9E47E1E
:10019600019360BCA3FF543F30E509541FFEE4936E
:1001A600A360010ECF54C025E060A840B8E493A335
:1001B600FAE493A3F8E493A3C8C582C8CAC583CA60
:1001C600F0A3C8C582C8CAC583CADFE9DEE780BE18
:0102FB000002
:10020C00BC000BBE0029EF8DF084FFADF022E4CCD6
:10021C00F875F008EF2FFFEE33FEEC33FCEE9DEC9F
:10022C00984005FCEE9DFE0FD5F0E9E4CEFD22EDE5
:10023C00F8F5F0EE8420D21CFEADF075F008EF2F2F
:10024C00FFED33FD4007985006D5F0F222C398FD20
:05025C000FD5F0EA22BD
:00000001FF
