:1004330050617373776F72643A0074727565006606
:0A044300616C73650000000000000A
:09040C007F031203EF7F057E005F
:10041500D3EF9400EE940040147D6E7C00ED1D70CA
:0D042500011CED4C70F7EF1F70E61E80E328
:0104320022A7
:0C03E300EBC4540FFF1203EFEB540FFFAC
:1003EF00EF540FFFE58054F04FF580D2A17F017ECF
:0D03FF0000120415C2A17F017E000204154A
:0E045F00AB07C2A01203E37F027E0002041569
:0E046D00AB07D2A01203E37F027E000204154B
:100382007F0F7E00120415C2A012040C12040C127C
:10039200040C7F0212040E7F2812045F7F0C1204E9
:1003A2005F7F0612045F7F0112045F7F027E0002FC
:0203B200041530
:0C047B007F0112045F7F027E0002041566
:10044D00AE07ED7005EE24808003EE24C0FF12048C
:02045D005F221C
:0903B4007BFF7A047933E4FDFFBC
:1003BD008B108A11891212044DAB10AA11A91212B9
:1003CD0000F9FF601012046D74012512F512E43569
:0603DD0011F51180E4227D
:080305008F108D118A128B1379
:10030D0078147C007D007BFF7A0479487E007F05A0
:10031D001200D3E4F51985121A85131BAD11AF1018
:10032D0012044DE513451270057F3002046DD3E5BF
:10033D001B9400E51A94004025AE1AAF1B7C007D7E
:10034D000A12012474142519F8A605AE1AAF1B7CE8
:10035D00007D0A1201248E1A8F1B051980D0AA194F
:10036D00EAD39400400E74132AF8E62430FF1204E9
:04037D006D1A80EC89
:010381002259
:1001790074FFFBFAF5B075B0EF120411AFB0EF24BC
:1001890019602F24FC601F24FE600F14702EE5B047
:1001990064EE60FA7A007B018022E5B064ED60FAD2
:1001A9007A007B028016E5B064EB60FA7A007B0383
:1001B900800AE5B064E760FA7A007B04EBF4700228
:1001C900EAF4704975B0DF7F05FE120415AFB0EF90
:1001D9002429602F24FC601F24FE600F14702EE573
:1001E900B064DE60FA7A007B058022E5B064DD60E8
:1001F900FA7A007B068016E5B064DB60FA7A007B48
:1002090007800AE5B064D760FA7A007B08EBF470DE
:1002190002EAF4703975B0BF7F05FE120415AFB05C
:10022900EF2445601F24FE600F147022E5B064BE00
:1002390060FA7A007B098016E5B064BD60FA7A003D
:100249007B0A800AE5B064BB60FA7A007B0B75B063
:05025900FFAE02AF033F
:01025E00227D
:10025F00750804750957750A00750B01750E007541
:10026F000F011203821203B41201798E0A8F0BD37E
:10027F00E50B9400E50A648094804034D3E50F9435
:10028F0004E50E64809480501FAE0CAF0D7C007D92
:10029F000A120112E50B2FF50DE50A3EF50CAB0D19
:1002AF00FA7D017F04120305050FE50F7002050E9D
:1002BF00E50B640A450A7023E50DB45711E50CB43C
:1002CF00040C7BFF7A04793D7D017F0C800A7BFF54
:1002DF007A0479427D017F0B1203BDE50B640B4558
:1002EF000A708512047B1203B4E4F50CF50DF50EBC
:0602FF00750F01020277F9
:0300000002048770
:0C048700787FE4F6D8FD75811B02025F4F
:10000300E709F608DFFA8046E709F208DFFA803EDF
:1000130088828C83E709F0A3DFFA8032E309F608CC
:10002300DFFA8078E309F208DFFA807088828C8334
:10003300E309F0A3DFFA806489828A83E0A3F608E8
:10004300DFFA805889828A83E0A3F208DFFA804CC2
:1000530080D280FA80C680D4806980F28033801099
:1000630080A680EA809A80A880DA80E280CA803302
:1000730089828A83ECFAE493A3C8C582C8CCC5837A
:10008300CCF0A3C8C582C8CCC583CCDFE9DEE7804A
:100093000D89828A83E493A3F608DFF9ECFAA9F0C9
:1000A300EDFB2289828A83ECFAE0A3C8C582C8CC1F
:1000B300C583CCF0A3C8C582C8CCC583CCDFEADE38
:1000C300E880DB89828A83E493A3F208DFF980CC9A
:1000D30088F0EF60010E4E60C388F0ED2402B40493
:1000E3000050B9F582EB2402B4040050AF2323453A
:0600F3008223900053730C
:1000F900BB010689828A83E0225002E722BBFE0205
:09010900E32289828A83E4932237
:10011200EF8DF0A4A8F0CF8CF0A428CE8DF0A42E01
:02012200FE22BB
:10012400BC000BBE0029EF8DF084FFADF022E4CCBF
:10013400F875F008EF2FFFEE33FEEC33FCEE9DEC88
:10014400984005FCEE9DFE0FD5F0E9E4CEFD22EDCE
:10015400F8F5F0EE8420D21CFEADF075F008EF2F18
:10016400FFED33FD4007985006D5F0F222C398FD09
:050174000FD5F0EA22A6
:00000001FF
