:0C00E8000A083F065B4F666D7D077F67CE
:1000CD007FF47E017D6E7C00ED1D70011CED4C708A
:0A00DD00F7EF1F70011EEF4E70EAEE
:0100E70022F6
:10008F008508A01200CD8509A01200CD850AA01207
:10009F0000CD850BA01200CD850CA01200CD850DD3
:1000AF00A01200CD850EA01200CD850FA01200CD9D
:0E00BF008510A01200CD8511A01200CD80C2C8
:03000000020003F8
:0C000300787FE4F6D8FD75811102004AF8
:10000F0002008FE493A3F8E493A34003F68001F278
:10001F0008DFF48029E493A3F85407240CC8C333F2
:10002F00C4540F4420C8834004F456800146F6DFC1
:10003F00E4800B01020408102040809000E8E47E69
:10004F00019360BCA3FF543F30E509541FFEE493B6
:10005F00A360010ECF54C025E060A840B8E493A37D
:10006F00FAE493A3F8E493A3C8C582C8CAC583CAA8
:10007F00F0A3C8C582C8CAC583CADFE9DEE780BE60
:0100F400000B
:00000001FF
